{
  "_format": "hh-sol-artifact-1",
  "contractName": "Buildings",
  "sourceName": "contracts/buildings.sol",
  "abi": [
    {
      "inputs": [],
      "stateMutability": "nonpayable",
      "type": "constructor"
    },
    {
      "anonymous": false,
      "inputs": [
        {
          "indexed": true,
          "internalType": "address",
          "name": "owner",
          "type": "address"
        },
        {
          "indexed": true,
          "internalType": "address",
          "name": "spender",
          "type": "address"
        },
        {
          "indexed": false,
          "internalType": "uint256",
          "name": "value",
          "type": "uint256"
        }
      ],
      "name": "Approval",
      "type": "event"
    },
    {
      "anonymous": false,
      "inputs": [
        {
          "indexed": true,
          "internalType": "address",
          "name": "from",
          "type": "address"
        },
        {
          "indexed": true,
          "internalType": "address",
          "name": "to",
          "type": "address"
        },
        {
          "indexed": false,
          "internalType": "uint256",
          "name": "value",
          "type": "uint256"
        }
      ],
      "name": "Transfer",
      "type": "event"
    },
    {
      "inputs": [
        {
          "internalType": "address",
          "name": "owner",
          "type": "address"
        },
        {
          "internalType": "address",
          "name": "spender",
          "type": "address"
        }
      ],
      "name": "allowance",
      "outputs": [
        {
          "internalType": "uint256",
          "name": "",
          "type": "uint256"
        }
      ],
      "stateMutability": "view",
      "type": "function"
    },
    {
      "inputs": [
        {
          "internalType": "address",
          "name": "spender",
          "type": "address"
        },
        {
          "internalType": "uint256",
          "name": "amount",
          "type": "uint256"
        }
      ],
      "name": "approve",
      "outputs": [
        {
          "internalType": "bool",
          "name": "",
          "type": "bool"
        }
      ],
      "stateMutability": "nonpayable",
      "type": "function"
    },
    {
      "inputs": [
        {
          "internalType": "address",
          "name": "account",
          "type": "address"
        }
      ],
      "name": "balanceOf",
      "outputs": [
        {
          "internalType": "uint256",
          "name": "",
          "type": "uint256"
        }
      ],
      "stateMutability": "view",
      "type": "function"
    },
    {
      "inputs": [
        {
          "internalType": "string",
          "name": "name",
          "type": "string"
        }
      ],
      "name": "createBuilding",
      "outputs": [
        {
          "internalType": "uint256",
          "name": "",
          "type": "uint256"
        }
      ],
      "stateMutability": "payable",
      "type": "function"
    },
    {
      "inputs": [],
      "name": "decimals",
      "outputs": [
        {
          "internalType": "uint8",
          "name": "",
          "type": "uint8"
        }
      ],
      "stateMutability": "view",
      "type": "function"
    },
    {
      "inputs": [
        {
          "internalType": "address",
          "name": "spender",
          "type": "address"
        },
        {
          "internalType": "uint256",
          "name": "subtractedValue",
          "type": "uint256"
        }
      ],
      "name": "decreaseAllowance",
      "outputs": [
        {
          "internalType": "bool",
          "name": "",
          "type": "bool"
        }
      ],
      "stateMutability": "nonpayable",
      "type": "function"
    },
    {
      "inputs": [
        {
          "internalType": "uint256",
          "name": "tokenId",
          "type": "uint256"
        }
      ],
      "name": "getBuilding",
      "outputs": [
        {
          "components": [
            {
              "internalType": "string",
              "name": "name",
              "type": "string"
            },
            {
              "internalType": "uint256",
              "name": "level",
              "type": "uint256"
            },
            {
              "internalType": "uint256",
              "name": "timeFromSpend",
              "type": "uint256"
            },
            {
              "internalType": "address",
              "name": "owner",
              "type": "address"
            },
            {
              "internalType": "bool",
              "name": "onSale",
              "type": "bool"
            },
            {
              "internalType": "uint256",
              "name": "value",
              "type": "uint256"
            }
          ],
          "internalType": "struct Buildings.Building",
          "name": "",
          "type": "tuple"
        }
      ],
      "stateMutability": "view",
      "type": "function"
    },
    {
      "inputs": [],
      "name": "getBuildingsOnSale",
      "outputs": [
        {
          "internalType": "uint256[]",
          "name": "",
          "type": "uint256[]"
        }
      ],
      "stateMutability": "view",
      "type": "function"
    },
    {
      "inputs": [],
      "name": "getBuildingsTokenIdsFromAddress",
      "outputs": [
        {
          "internalType": "uint256[]",
          "name": "",
          "type": "uint256[]"
        }
      ],
      "stateMutability": "view",
      "type": "function"
    },
    {
      "inputs": [
        {
          "internalType": "address",
          "name": "spender",
          "type": "address"
        },
        {
          "internalType": "uint256",
          "name": "addedValue",
          "type": "uint256"
        }
      ],
      "name": "increaseAllowance",
      "outputs": [
        {
          "internalType": "bool",
          "name": "",
          "type": "bool"
        }
      ],
      "stateMutability": "nonpayable",
      "type": "function"
    },
    {
      "inputs": [],
      "name": "name",
      "outputs": [
        {
          "internalType": "string",
          "name": "",
          "type": "string"
        }
      ],
      "stateMutability": "view",
      "type": "function"
    },
    {
      "inputs": [
        {
          "internalType": "uint256",
          "name": "tokenId",
          "type": "uint256"
        }
      ],
      "name": "ownerOf",
      "outputs": [
        {
          "internalType": "address",
          "name": "",
          "type": "address"
        }
      ],
      "stateMutability": "view",
      "type": "function"
    },
    {
      "inputs": [
        {
          "internalType": "uint256",
          "name": "tokenId",
          "type": "uint256"
        }
      ],
      "name": "payLoadBuilding",
      "outputs": [],
      "stateMutability": "nonpayable",
      "type": "function"
    },
    {
      "inputs": [
        {
          "internalType": "uint256",
          "name": "tokenId",
          "type": "uint256"
        },
        {
          "internalType": "uint256",
          "name": "value",
          "type": "uint256"
        }
      ],
      "name": "putBuildingOnSale",
      "outputs": [],
      "stateMutability": "nonpayable",
      "type": "function"
    },
    {
      "inputs": [],
      "name": "symbol",
      "outputs": [
        {
          "internalType": "string",
          "name": "",
          "type": "string"
        }
      ],
      "stateMutability": "view",
      "type": "function"
    },
    {
      "inputs": [],
      "name": "totalSupply",
      "outputs": [
        {
          "internalType": "uint256",
          "name": "",
          "type": "uint256"
        }
      ],
      "stateMutability": "view",
      "type": "function"
    },
    {
      "inputs": [
        {
          "internalType": "address",
          "name": "to",
          "type": "address"
        },
        {
          "internalType": "uint256",
          "name": "amount",
          "type": "uint256"
        }
      ],
      "name": "transfer",
      "outputs": [
        {
          "internalType": "bool",
          "name": "",
          "type": "bool"
        }
      ],
      "stateMutability": "nonpayable",
      "type": "function"
    },
    {
      "inputs": [
        {
          "internalType": "uint256",
          "name": "tokenId",
          "type": "uint256"
        }
      ],
      "name": "transferBuyBuilding",
      "outputs": [],
      "stateMutability": "nonpayable",
      "type": "function"
    },
    {
      "inputs": [
        {
          "internalType": "address",
          "name": "from",
          "type": "address"
        },
        {
          "internalType": "address",
          "name": "to",
          "type": "address"
        },
        {
          "internalType": "uint256",
          "name": "amount",
          "type": "uint256"
        }
      ],
      "name": "transferFrom",
      "outputs": [
        {
          "internalType": "bool",
          "name": "",
          "type": "bool"
        }
      ],
      "stateMutability": "nonpayable",
      "type": "function"
    },
    {
      "inputs": [
        {
          "internalType": "uint256",
          "name": "tokenId",
          "type": "uint256"
        }
      ],
      "name": "upLevelBuilding",
      "outputs": [
        {
          "internalType": "uint256",
          "name": "",
          "type": "uint256"
        }
      ],
      "stateMutability": "payable",
      "type": "function"
    },
    {
      "inputs": [],
      "name": "withDraw",
      "outputs": [],
      "stateMutability": "nonpayable",
      "type": "function"
    }
  ],
  "bytecode": "0x6080604052600a60065534801561001557600080fd5b506040518060400160405280600881526020017f4275696c64696e670000000000000000000000000000000000000000000000008152506040518060400160405280600281526020017f4244000000000000000000000000000000000000000000000000000000000000815250816003908161009191906104c3565b5080600490816100a191906104c3565b50505033600760006101000a81548173ffffffffffffffffffffffffffffffffffffffff021916908373ffffffffffffffffffffffffffffffffffffffff1602179055506100f930631dcd65006100fe60201b60201c565b61069f565b600073ffffffffffffffffffffffffffffffffffffffff168273ffffffffffffffffffffffffffffffffffffffff160361016d576040517f08c379a0000000000000000000000000000000000000000000000000000000008152600401610164906105f2565b60405180910390fd5b61017f6000838361026960201b60201c565b80600260008282546101919190610641565b92505081905550806000808473ffffffffffffffffffffffffffffffffffffffff1673ffffffffffffffffffffffffffffffffffffffff16815260200190815260200160002060008282546101e69190610641565b925050819055508173ffffffffffffffffffffffffffffffffffffffff16600073ffffffffffffffffffffffffffffffffffffffff167fddf252ad1be2c89b69c2b068fc378daa952ba7f163c4a11628f55a4df523b3ef8360405161024b9190610684565b60405180910390a36102656000838361026e60201b60201c565b5050565b505050565b505050565b600081519050919050565b7f4e487b7100000000000000000000000000000000000000000000000000000000600052604160045260246000fd5b7f4e487b7100000000000000000000000000000000000000000000000000000000600052602260045260246000fd5b600060028204905060018216806102f457607f821691505b602082108103610307576103066102ad565b5b50919050565b60008190508160005260206000209050919050565b60006020601f8301049050919050565b600082821b905092915050565b60006008830261036f7fffffffffffffffffffffffffffffffffffffffffffffffffffffffffffffffff82610332565b6103798683610332565b95508019841693508086168417925050509392505050565b6000819050919050565b6000819050919050565b60006103c06103bb6103b684610391565b61039b565b610391565b9050919050565b6000819050919050565b6103da836103a5565b6103ee6103e6826103c7565b84845461033f565b825550505050565b600090565b6104036103f6565b61040e8184846103d1565b505050565b5b81811015610432576104276000826103fb565b600181019050610414565b5050565b601f821115610477576104488161030d565b61045184610322565b81016020851015610460578190505b61047461046c85610322565b830182610413565b50505b505050565b600082821c905092915050565b600061049a6000198460080261047c565b1980831691505092915050565b60006104b38383610489565b9150826002028217905092915050565b6104cc82610273565b67ffffffffffffffff8111156104e5576104e461027e565b5b6104ef82546102dc565b6104fa828285610436565b600060209050601f83116001811461052d576000841561051b578287015190505b61052585826104a7565b86555061058d565b601f19841661053b8661030d565b60005b828110156105635784890151825560018201915060208501945060208101905061053e565b86831015610580578489015161057c601f891682610489565b8355505b6001600288020188555050505b505050505050565b600082825260208201905092915050565b7f45524332303a206d696e7420746f20746865207a65726f206164647265737300600082015250565b60006105dc601f83610595565b91506105e7826105a6565b602082019050919050565b6000602082019050818103600083015261060b816105cf565b9050919050565b7f4e487b7100000000000000000000000000000000000000000000000000000000600052601160045260246000fd5b600061064c82610391565b915061065783610391565b925082820190508082111561066f5761066e610612565b5b92915050565b61067e81610391565b82525050565b60006020820190506106996000830184610675565b92915050565b6128f0806106ae6000396000f3fe60806040526004361061012a5760003560e01c80636352211e116100ab578063a9059cbb1161006f578063a9059cbb14610421578063b2cbe1631461045e578063bbdffba81461048e578063dd62ed3e146104b7578063ed8cf464146104f4578063fd10607a1461051f5761012a565b80636352211e1461030257806370a082311461033f57806395d89b411461037c5780639dfd8b02146103a7578063a457c2d7146103e45761012a565b806323b872dd116100f257806323b872dd14610204578063313ce56714610241578063395093511461026c5780634e2772e7146102a9578063514166d0146102d95761012a565b806306fdde031461012f578063095ea7b31461015a5780630fdb1c101461019757806314bd5013146101ae57806318160ddd146101d9575b600080fd5b34801561013b57600080fd5b50610144610548565b6040516101519190611a4b565b60405180910390f35b34801561016657600080fd5b50610181600480360381019061017c9190611b15565b6105da565b60405161018e9190611b70565b60405180910390f35b3480156101a357600080fd5b506101ac6105fd565b005b3480156101ba57600080fd5b506101c3610668565b6040516101d09190611c49565b60405180910390f35b3480156101e557600080fd5b506101ee6106c0565b6040516101fb9190611c7a565b60405180910390f35b34801561021057600080fd5b5061022b60048036038101906102269190611c95565b6106ca565b6040516102389190611b70565b60405180910390f35b34801561024d57600080fd5b506102566106f9565b6040516102639190611d04565b60405180910390f35b34801561027857600080fd5b50610293600480360381019061028e9190611b15565b610702565b6040516102a09190611b70565b60405180910390f35b6102c360048036038101906102be9190611d1f565b610739565b6040516102d09190611c7a565b60405180910390f35b3480156102e557600080fd5b5061030060048036038101906102fb9190611d4c565b6107d9565b005b34801561030e57600080fd5b5061032960048036038101906103249190611d1f565b6108c4565b6040516103369190611d9b565b60405180910390f35b34801561034b57600080fd5b5061036660048036038101906103619190611db6565b610904565b6040516103739190611c7a565b60405180910390f35b34801561038857600080fd5b5061039161094c565b60405161039e9190611a4b565b60405180910390f35b3480156103b357600080fd5b506103ce60048036038101906103c99190611d1f565b6109de565b6040516103db9190611ed4565b60405180910390f35b3480156103f057600080fd5b5061040b60048036038101906104069190611b15565b610b32565b6040516104189190611b70565b60405180910390f35b34801561042d57600080fd5b5061044860048036038101906104439190611b15565b610ba9565b6040516104559190611b70565b60405180910390f35b6104786004803603810190610473919061202b565b610bcc565b6040516104859190611c7a565b60405180910390f35b34801561049a57600080fd5b506104b560048036038101906104b09190611d1f565b610d62565b005b3480156104c357600080fd5b506104de60048036038101906104d99190612074565b611157565b6040516104eb9190611c7a565b60405180910390f35b34801561050057600080fd5b506105096111de565b6040516105169190611c49565b60405180910390f35b34801561052b57600080fd5b5061054660048036038101906105419190611d1f565b611273565b005b606060038054610557906120e3565b80601f0160208091040260200160405190810160405280929190818152602001828054610583906120e3565b80156105d05780601f106105a5576101008083540402835291602001916105d0565b820191906000526020600020905b8154815290600101906020018083116105b357829003601f168201915b5050505050905090565b6000806105e5611463565b90506105f281858561146b565b600191505092915050565b600760009054906101000a900473ffffffffffffffffffffffffffffffffffffffff1673ffffffffffffffffffffffffffffffffffffffff166108fc479081150290604051600060405180830381858888f19350505050158015610665573d6000803e3d6000fd5b50565b6060600a8054806020026020016040519081016040528092919081815260200182805480156106b657602002820191906000526020600020905b8154815260200190600101908083116106a2575b5050505050905090565b6000600254905090565b6000806106d5611463565b90506106e2858285611634565b6106ed8585856116c0565b60019150509392505050565b60006012905090565b60008061070d611463565b905061072e81858561071f8589611157565b6107299190612143565b61146b565b600191505092915050565b60003373ffffffffffffffffffffffffffffffffffffffff1661075b836108c4565b73ffffffffffffffffffffffffffffffffffffffff161461077b57600080fd5b670de0b6b3a7640000341461078f57600080fd5b6008600083815260200190815260200160002060010160008154809291906107b690612177565b919050555060086000838152602001908152602001600020600101549050919050565b3373ffffffffffffffffffffffffffffffffffffffff166107f9836108c4565b73ffffffffffffffffffffffffffffffffffffffff161461081957600080fd5b600015156008600084815260200190815260200160002060030160149054906101000a900460ff1615151461084d57600080fd5b60016008600084815260200190815260200160002060030160146101000a81548160ff021916908315150217905550806008600084815260200190815260200160002060040181905550600a8290806001815401808255809150506001900390600052602060002001600090919091909150555050565b60006008600083815260200190815260200160002060030160009054906101000a900473ffffffffffffffffffffffffffffffffffffffff169050919050565b60008060008373ffffffffffffffffffffffffffffffffffffffff1673ffffffffffffffffffffffffffffffffffffffff168152602001908152602001600020549050919050565b60606004805461095b906120e3565b80601f0160208091040260200160405190810160405280929190818152602001828054610987906120e3565b80156109d45780601f106109a9576101008083540402835291602001916109d4565b820191906000526020600020905b8154815290600101906020018083116109b757829003601f168201915b5050505050905090565b6109e661196d565b6000600860008481526020019081526020016000206040518060c0016040529081600082018054610a16906120e3565b80601f0160208091040260200160405190810160405280929190818152602001828054610a42906120e3565b8015610a8f5780601f10610a6457610100808354040283529160200191610a8f565b820191906000526020600020905b815481529060010190602001808311610a7257829003601f168201915b5050505050815260200160018201548152602001600282015481526020016003820160009054906101000a900473ffffffffffffffffffffffffffffffffffffffff1673ffffffffffffffffffffffffffffffffffffffff1673ffffffffffffffffffffffffffffffffffffffff1681526020016003820160149054906101000a900460ff16151515158152602001600482015481525050905080915050919050565b600080610b3d611463565b90506000610b4b8286611157565b905083811015610b90576040517f08c379a0000000000000000000000000000000000000000000000000000000008152600401610b8790612231565b60405180910390fd5b610b9d828686840361146b565b60019250505092915050565b600080610bb4611463565b9050610bc18185856116c0565b600191505092915050565b6000670de0b6b3a76400003414610be257600080fd5b610bec600561193f565b6000610bf86005611955565b90506040518060c00160405280848152602001600181526020014281526020013373ffffffffffffffffffffffffffffffffffffffff1681526020016000151581526020016000815250600860008381526020019081526020016000206000820151816000019081610c6a91906123fd565b50602082015181600101556040820151816002015560608201518160030160006101000a81548173ffffffffffffffffffffffffffffffffffffffff021916908373ffffffffffffffffffffffffffffffffffffffff16021790555060808201518160030160146101000a81548160ff02191690831515021790555060a08201518160040155905050600960003373ffffffffffffffffffffffffffffffffffffffff1673ffffffffffffffffffffffffffffffffffffffff16815260200190815260200160002081908060018154018082558091505060019003906000526020600020016000909190919091505580915050919050565b6000600860008381526020019081526020016000206040518060c0016040529081600082018054610d92906120e3565b80601f0160208091040260200160405190810160405280929190818152602001828054610dbe906120e3565b8015610e0b5780601f10610de057610100808354040283529160200191610e0b565b820191906000526020600020905b815481529060010190602001808311610dee57829003601f168201915b5050505050815260200160018201548152602001600282015481526020016003820160009054906101000a900473ffffffffffffffffffffffffffffffffffffffff1673ffffffffffffffffffffffffffffffffffffffff1673ffffffffffffffffffffffffffffffffffffffff1681526020016003820160149054906101000a900460ff1615151515815260200160048201548152505090508060800151610eb357600080fd5b610ec581606001518260a00151610ba9565b5060008160600151905060006008600085815260200190815260200160002060030160146101000a81548160ff021916908315150217905550336008600085815260200190815260200160002060030160006101000a81548173ffffffffffffffffffffffffffffffffffffffff021916908373ffffffffffffffffffffffffffffffffffffffff160217905550600960003373ffffffffffffffffffffffffffffffffffffffff1673ffffffffffffffffffffffffffffffffffffffff16815260200190815260200160002083908060018154018082558091505060019003906000526020600020016000909190919091505560005b600960008373ffffffffffffffffffffffffffffffffffffffff1673ffffffffffffffffffffffffffffffffffffffff168152602001908152602001600020805490508110156110e0576000600960008473ffffffffffffffffffffffffffffffffffffffff1673ffffffffffffffffffffffffffffffffffffffff1681526020019081526020016000208281548110611059576110586124cf565b5b906000526020600020015490508481036110d257600960008473ffffffffffffffffffffffffffffffffffffffff1673ffffffffffffffffffffffffffffffffffffffff16815260200190815260200160002082815481106110be576110bd6124cf565b5b9060005260206000200160009055506110e0565b508080600101915050610fbc565b5060005b600a80549050811015611151576000600a8281548110611107576111066124cf565b5b9060005260206000200154905084810361114357600a828154811061112f5761112e6124cf565b5b906000526020600020016000905550611151565b5080806001019150506110e4565b50505050565b6000600160008473ffffffffffffffffffffffffffffffffffffffff1673ffffffffffffffffffffffffffffffffffffffff16815260200190815260200160002060008373ffffffffffffffffffffffffffffffffffffffff1673ffffffffffffffffffffffffffffffffffffffff16815260200190815260200160002054905092915050565b6060600960003373ffffffffffffffffffffffffffffffffffffffff1673ffffffffffffffffffffffffffffffffffffffff16815260200190815260200160002080548060200260200160405190810160405280929190818152602001828054801561126957602002820191906000526020600020905b815481526020019060010190808311611255575b5050505050905090565b3373ffffffffffffffffffffffffffffffffffffffff16611293826108c4565b73ffffffffffffffffffffffffffffffffffffffff16146112b357600080fd5b6000600860008381526020019081526020016000206040518060c00160405290816000820180546112e3906120e3565b80601f016020809104026020016040519081016040528092919081815260200182805461130f906120e3565b801561135c5780601f106113315761010080835404028352916020019161135c565b820191906000526020600020905b81548152906001019060200180831161133f57829003601f168201915b5050505050815260200160018201548152602001600282015481526020016003820160009054906101000a900473ffffffffffffffffffffffffffffffffffffffff1673ffffffffffffffffffffffffffffffffffffffff1673ffffffffffffffffffffffffffffffffffffffff1681526020016003820160149054906101000a900460ff1615151515815260200160048201548152505090506000816040015190506000826020015190506000824261141691906124fe565b9050600060065483836114299190612532565b6114339190612532565b905042600860008881526020019081526020016000206002018190555061145b3033836116c0565b505050505050565b600033905090565b600073ffffffffffffffffffffffffffffffffffffffff168373ffffffffffffffffffffffffffffffffffffffff16036114da576040517f08c379a00000000000000000000000000000000000000000000000000000000081526004016114d1906125e6565b60405180910390fd5b600073ffffffffffffffffffffffffffffffffffffffff168273ffffffffffffffffffffffffffffffffffffffff1603611549576040517f08c379a000000000000000000000000000000000000000000000000000000000815260040161154090612678565b60405180910390fd5b80600160008573ffffffffffffffffffffffffffffffffffffffff1673ffffffffffffffffffffffffffffffffffffffff16815260200190815260200160002060008473ffffffffffffffffffffffffffffffffffffffff1673ffffffffffffffffffffffffffffffffffffffff168152602001908152602001600020819055508173ffffffffffffffffffffffffffffffffffffffff168373ffffffffffffffffffffffffffffffffffffffff167f8c5be1e5ebec7d5bd14f71427d1e84f3dd0314c0f7b2291e5b200ac8c7c3b925836040516116279190611c7a565b60405180910390a3505050565b60006116408484611157565b90507fffffffffffffffffffffffffffffffffffffffffffffffffffffffffffffffff81146116ba57818110156116ac576040517f08c379a00000000000000000000000000000000000000000000000000000000081526004016116a3906126e4565b60405180910390fd5b6116b9848484840361146b565b5b50505050565b600073ffffffffffffffffffffffffffffffffffffffff168373ffffffffffffffffffffffffffffffffffffffff160361172f576040517f08c379a000000000000000000000000000000000000000000000000000000000815260040161172690612776565b60405180910390fd5b600073ffffffffffffffffffffffffffffffffffffffff168273ffffffffffffffffffffffffffffffffffffffff160361179e576040517f08c379a000000000000000000000000000000000000000000000000000000000815260040161179590612808565b60405180910390fd5b6117a9838383611963565b60008060008573ffffffffffffffffffffffffffffffffffffffff1673ffffffffffffffffffffffffffffffffffffffff1681526020019081526020016000205490508181101561182f576040517f08c379a00000000000000000000000000000000000000000000000000000000081526004016118269061289a565b60405180910390fd5b8181036000808673ffffffffffffffffffffffffffffffffffffffff1673ffffffffffffffffffffffffffffffffffffffff16815260200190815260200160002081905550816000808573ffffffffffffffffffffffffffffffffffffffff1673ffffffffffffffffffffffffffffffffffffffff16815260200190815260200160002060008282546118c29190612143565b925050819055508273ffffffffffffffffffffffffffffffffffffffff168473ffffffffffffffffffffffffffffffffffffffff167fddf252ad1be2c89b69c2b068fc378daa952ba7f163c4a11628f55a4df523b3ef846040516119269190611c7a565b60405180910390a3611939848484611968565b50505050565b6001816000016000828254019250508190555050565b600081600001549050919050565b505050565b505050565b6040518060c00160405280606081526020016000815260200160008152602001600073ffffffffffffffffffffffffffffffffffffffff168152602001600015158152602001600081525090565b600081519050919050565b600082825260208201905092915050565b60005b838110156119f55780820151818401526020810190506119da565b60008484015250505050565b6000601f19601f8301169050919050565b6000611a1d826119bb565b611a2781856119c6565b9350611a378185602086016119d7565b611a4081611a01565b840191505092915050565b60006020820190508181036000830152611a658184611a12565b905092915050565b6000604051905090565b600080fd5b600080fd5b600073ffffffffffffffffffffffffffffffffffffffff82169050919050565b6000611aac82611a81565b9050919050565b611abc81611aa1565b8114611ac757600080fd5b50565b600081359050611ad981611ab3565b92915050565b6000819050919050565b611af281611adf565b8114611afd57600080fd5b50565b600081359050611b0f81611ae9565b92915050565b60008060408385031215611b2c57611b2b611a77565b5b6000611b3a85828601611aca565b9250506020611b4b85828601611b00565b9150509250929050565b60008115159050919050565b611b6a81611b55565b82525050565b6000602082019050611b856000830184611b61565b92915050565b600081519050919050565b600082825260208201905092915050565b6000819050602082019050919050565b611bc081611adf565b82525050565b6000611bd28383611bb7565b60208301905092915050565b6000602082019050919050565b6000611bf682611b8b565b611c008185611b96565b9350611c0b83611ba7565b8060005b83811015611c3c578151611c238882611bc6565b9750611c2e83611bde565b925050600181019050611c0f565b5085935050505092915050565b60006020820190508181036000830152611c638184611beb565b905092915050565b611c7481611adf565b82525050565b6000602082019050611c8f6000830184611c6b565b92915050565b600080600060608486031215611cae57611cad611a77565b5b6000611cbc86828701611aca565b9350506020611ccd86828701611aca565b9250506040611cde86828701611b00565b9150509250925092565b600060ff82169050919050565b611cfe81611ce8565b82525050565b6000602082019050611d196000830184611cf5565b92915050565b600060208284031215611d3557611d34611a77565b5b6000611d4384828501611b00565b91505092915050565b60008060408385031215611d6357611d62611a77565b5b6000611d7185828601611b00565b9250506020611d8285828601611b00565b9150509250929050565b611d9581611aa1565b82525050565b6000602082019050611db06000830184611d8c565b92915050565b600060208284031215611dcc57611dcb611a77565b5b6000611dda84828501611aca565b91505092915050565b600082825260208201905092915050565b6000611dff826119bb565b611e098185611de3565b9350611e198185602086016119d7565b611e2281611a01565b840191505092915050565b611e3681611aa1565b82525050565b611e4581611b55565b82525050565b600060c0830160008301518482036000860152611e688282611df4565b9150506020830151611e7d6020860182611bb7565b506040830151611e906040860182611bb7565b506060830151611ea36060860182611e2d565b506080830151611eb66080860182611e3c565b5060a0830151611ec960a0860182611bb7565b508091505092915050565b60006020820190508181036000830152611eee8184611e4b565b905092915050565b600080fd5b600080fd5b7f4e487b7100000000000000000000000000000000000000000000000000000000600052604160045260246000fd5b611f3882611a01565b810181811067ffffffffffffffff82111715611f5757611f56611f00565b5b80604052505050565b6000611f6a611a6d565b9050611f768282611f2f565b919050565b600067ffffffffffffffff821115611f9657611f95611f00565b5b611f9f82611a01565b9050602081019050919050565b82818337600083830152505050565b6000611fce611fc984611f7b565b611f60565b905082815260208101848484011115611fea57611fe9611efb565b5b611ff5848285611fac565b509392505050565b600082601f83011261201257612011611ef6565b5b8135612022848260208601611fbb565b91505092915050565b60006020828403121561204157612040611a77565b5b600082013567ffffffffffffffff81111561205f5761205e611a7c565b5b61206b84828501611ffd565b91505092915050565b6000806040838503121561208b5761208a611a77565b5b600061209985828601611aca565b92505060206120aa85828601611aca565b9150509250929050565b7f4e487b7100000000000000000000000000000000000000000000000000000000600052602260045260246000fd5b600060028204905060018216806120fb57607f821691505b60208210810361210e5761210d6120b4565b5b50919050565b7f4e487b7100000000000000000000000000000000000000000000000000000000600052601160045260246000fd5b600061214e82611adf565b915061215983611adf565b925082820190508082111561217157612170612114565b5b92915050565b600061218282611adf565b91507fffffffffffffffffffffffffffffffffffffffffffffffffffffffffffffffff82036121b4576121b3612114565b5b600182019050919050565b7f45524332303a2064656372656173656420616c6c6f77616e63652062656c6f7760008201527f207a65726f000000000000000000000000000000000000000000000000000000602082015250565b600061221b6025836119c6565b9150612226826121bf565b604082019050919050565b6000602082019050818103600083015261224a8161220e565b9050919050565b60008190508160005260206000209050919050565b60006020601f8301049050919050565b600082821b905092915050565b6000600883026122b37fffffffffffffffffffffffffffffffffffffffffffffffffffffffffffffffff82612276565b6122bd8683612276565b95508019841693508086168417925050509392505050565b6000819050919050565b60006122fa6122f56122f084611adf565b6122d5565b611adf565b9050919050565b6000819050919050565b612314836122df565b61232861232082612301565b848454612283565b825550505050565b600090565b61233d612330565b61234881848461230b565b505050565b5b8181101561236c57612361600082612335565b60018101905061234e565b5050565b601f8211156123b15761238281612251565b61238b84612266565b8101602085101561239a578190505b6123ae6123a685612266565b83018261234d565b50505b505050565b600082821c905092915050565b60006123d4600019846008026123b6565b1980831691505092915050565b60006123ed83836123c3565b9150826002028217905092915050565b612406826119bb565b67ffffffffffffffff81111561241f5761241e611f00565b5b61242982546120e3565b612434828285612370565b600060209050601f8311600181146124675760008415612455578287015190505b61245f85826123e1565b8655506124c7565b601f19841661247586612251565b60005b8281101561249d57848901518255600182019150602085019450602081019050612478565b868310156124ba57848901516124b6601f8916826123c3565b8355505b6001600288020188555050505b505050505050565b7f4e487b7100000000000000000000000000000000000000000000000000000000600052603260045260246000fd5b600061250982611adf565b915061251483611adf565b925082820390508181111561252c5761252b612114565b5b92915050565b600061253d82611adf565b915061254883611adf565b925082820261255681611adf565b9150828204841483151761256d5761256c612114565b5b5092915050565b7f45524332303a20617070726f76652066726f6d20746865207a65726f2061646460008201527f7265737300000000000000000000000000000000000000000000000000000000602082015250565b60006125d06024836119c6565b91506125db82612574565b604082019050919050565b600060208201905081810360008301526125ff816125c3565b9050919050565b7f45524332303a20617070726f766520746f20746865207a65726f20616464726560008201527f7373000000000000000000000000000000000000000000000000000000000000602082015250565b60006126626022836119c6565b915061266d82612606565b604082019050919050565b6000602082019050818103600083015261269181612655565b9050919050565b7f45524332303a20696e73756666696369656e7420616c6c6f77616e6365000000600082015250565b60006126ce601d836119c6565b91506126d982612698565b602082019050919050565b600060208201905081810360008301526126fd816126c1565b9050919050565b7f45524332303a207472616e736665722066726f6d20746865207a65726f20616460008201527f6472657373000000000000000000000000000000000000000000000000000000602082015250565b60006127606025836119c6565b915061276b82612704565b604082019050919050565b6000602082019050818103600083015261278f81612753565b9050919050565b7f45524332303a207472616e7366657220746f20746865207a65726f206164647260008201527f6573730000000000000000000000000000000000000000000000000000000000602082015250565b60006127f26023836119c6565b91506127fd82612796565b604082019050919050565b60006020820190508181036000830152612821816127e5565b9050919050565b7f45524332303a207472616e7366657220616d6f756e742065786365656473206260008201527f616c616e63650000000000000000000000000000000000000000000000000000602082015250565b60006128846026836119c6565b915061288f82612828565b604082019050919050565b600060208201905081810360008301526128b381612877565b905091905056fea264697066735822122088616b8dc59f8f504a2962f6f2cdf9b7e58a0bd4e1405223080a91511512d24664736f6c634300081c0033",
  "linkReferences": {},
  "deployedLinkReferences": {}
}