{
  "_format": "hh-sol-artifact-1",
  "contractName": "Buildings",
  "sourceName": "contracts/buildings.sol",
  "abi": [
    {
      "inputs": [],
      "stateMutability": "nonpayable",
      "type": "constructor"
    },
    {
      "anonymous": false,
      "inputs": [
        {
          "indexed": true,
          "internalType": "address",
          "name": "owner",
          "type": "address"
        },
        {
          "indexed": true,
          "internalType": "address",
          "name": "spender",
          "type": "address"
        },
        {
          "indexed": false,
          "internalType": "uint256",
          "name": "value",
          "type": "uint256"
        }
      ],
      "name": "Approval",
      "type": "event"
    },
    {
      "anonymous": false,
      "inputs": [
        {
          "indexed": true,
          "internalType": "address",
          "name": "from",
          "type": "address"
        },
        {
          "indexed": true,
          "internalType": "address",
          "name": "to",
          "type": "address"
        },
        {
          "indexed": false,
          "internalType": "uint256",
          "name": "value",
          "type": "uint256"
        }
      ],
      "name": "Transfer",
      "type": "event"
    },
    {
      "inputs": [
        {
          "internalType": "address",
          "name": "owner",
          "type": "address"
        },
        {
          "internalType": "address",
          "name": "spender",
          "type": "address"
        }
      ],
      "name": "allowance",
      "outputs": [
        {
          "internalType": "uint256",
          "name": "",
          "type": "uint256"
        }
      ],
      "stateMutability": "view",
      "type": "function"
    },
    {
      "inputs": [
        {
          "internalType": "address",
          "name": "spender",
          "type": "address"
        },
        {
          "internalType": "uint256",
          "name": "amount",
          "type": "uint256"
        }
      ],
      "name": "approve",
      "outputs": [
        {
          "internalType": "bool",
          "name": "",
          "type": "bool"
        }
      ],
      "stateMutability": "nonpayable",
      "type": "function"
    },
    {
      "inputs": [
        {
          "internalType": "address",
          "name": "account",
          "type": "address"
        }
      ],
      "name": "balanceOf",
      "outputs": [
        {
          "internalType": "uint256",
          "name": "",
          "type": "uint256"
        }
      ],
      "stateMutability": "view",
      "type": "function"
    },
    {
      "inputs": [
        {
          "internalType": "string",
          "name": "name",
          "type": "string"
        }
      ],
      "name": "createBuilding",
      "outputs": [
        {
          "internalType": "uint256",
          "name": "",
          "type": "uint256"
        }
      ],
      "stateMutability": "payable",
      "type": "function"
    },
    {
      "inputs": [],
      "name": "decimals",
      "outputs": [
        {
          "internalType": "uint8",
          "name": "",
          "type": "uint8"
        }
      ],
      "stateMutability": "view",
      "type": "function"
    },
    {
      "inputs": [
        {
          "internalType": "address",
          "name": "spender",
          "type": "address"
        },
        {
          "internalType": "uint256",
          "name": "subtractedValue",
          "type": "uint256"
        }
      ],
      "name": "decreaseAllowance",
      "outputs": [
        {
          "internalType": "bool",
          "name": "",
          "type": "bool"
        }
      ],
      "stateMutability": "nonpayable",
      "type": "function"
    },
    {
      "inputs": [
        {
          "internalType": "uint256",
          "name": "tokenId",
          "type": "uint256"
        }
      ],
      "name": "getBuilding",
      "outputs": [
        {
          "components": [
            {
              "internalType": "string",
              "name": "name",
              "type": "string"
            },
            {
              "internalType": "uint256",
              "name": "level",
              "type": "uint256"
            },
            {
              "internalType": "uint256",
              "name": "timeFromSpend",
              "type": "uint256"
            },
            {
              "internalType": "address",
              "name": "owner",
              "type": "address"
            },
            {
              "internalType": "bool",
              "name": "onSale",
              "type": "bool"
            },
            {
              "internalType": "uint256",
              "name": "value",
              "type": "uint256"
            }
          ],
          "internalType": "struct Buildings.Building",
          "name": "",
          "type": "tuple"
        }
      ],
      "stateMutability": "view",
      "type": "function"
    },
    {
      "inputs": [],
      "name": "getBuildingsOnSale",
      "outputs": [
        {
          "internalType": "uint256[]",
          "name": "",
          "type": "uint256[]"
        }
      ],
      "stateMutability": "view",
      "type": "function"
    },
    {
      "inputs": [],
      "name": "getBuildingsTokenIdsFromAddress",
      "outputs": [
        {
          "internalType": "uint256[]",
          "name": "",
          "type": "uint256[]"
        }
      ],
      "stateMutability": "view",
      "type": "function"
    },
    {
      "inputs": [
        {
          "internalType": "address",
          "name": "spender",
          "type": "address"
        },
        {
          "internalType": "uint256",
          "name": "addedValue",
          "type": "uint256"
        }
      ],
      "name": "increaseAllowance",
      "outputs": [
        {
          "internalType": "bool",
          "name": "",
          "type": "bool"
        }
      ],
      "stateMutability": "nonpayable",
      "type": "function"
    },
    {
      "inputs": [],
      "name": "name",
      "outputs": [
        {
          "internalType": "string",
          "name": "",
          "type": "string"
        }
      ],
      "stateMutability": "view",
      "type": "function"
    },
    {
      "inputs": [
        {
          "internalType": "uint256",
          "name": "tokenId",
          "type": "uint256"
        }
      ],
      "name": "ownerOf",
      "outputs": [
        {
          "internalType": "address",
          "name": "",
          "type": "address"
        }
      ],
      "stateMutability": "view",
      "type": "function"
    },
    {
      "inputs": [
        {
          "internalType": "uint256",
          "name": "tokenId",
          "type": "uint256"
        }
      ],
      "name": "payLoadBuilding",
      "outputs": [],
      "stateMutability": "nonpayable",
      "type": "function"
    },
    {
      "inputs": [
        {
          "internalType": "uint256",
          "name": "tokenId",
          "type": "uint256"
        },
        {
          "internalType": "uint256",
          "name": "value",
          "type": "uint256"
        }
      ],
      "name": "putBuildingOnSale",
      "outputs": [],
      "stateMutability": "nonpayable",
      "type": "function"
    },
    {
      "inputs": [],
      "name": "symbol",
      "outputs": [
        {
          "internalType": "string",
          "name": "",
          "type": "string"
        }
      ],
      "stateMutability": "view",
      "type": "function"
    },
    {
      "inputs": [],
      "name": "totalSupply",
      "outputs": [
        {
          "internalType": "uint256",
          "name": "",
          "type": "uint256"
        }
      ],
      "stateMutability": "view",
      "type": "function"
    },
    {
      "inputs": [
        {
          "internalType": "address",
          "name": "to",
          "type": "address"
        },
        {
          "internalType": "uint256",
          "name": "amount",
          "type": "uint256"
        }
      ],
      "name": "transfer",
      "outputs": [
        {
          "internalType": "bool",
          "name": "",
          "type": "bool"
        }
      ],
      "stateMutability": "nonpayable",
      "type": "function"
    },
    {
      "inputs": [
        {
          "internalType": "uint256",
          "name": "tokenId",
          "type": "uint256"
        }
      ],
      "name": "transferBuyBuilding",
      "outputs": [],
      "stateMutability": "nonpayable",
      "type": "function"
    },
    {
      "inputs": [
        {
          "internalType": "address",
          "name": "from",
          "type": "address"
        },
        {
          "internalType": "address",
          "name": "to",
          "type": "address"
        },
        {
          "internalType": "uint256",
          "name": "amount",
          "type": "uint256"
        }
      ],
      "name": "transferFrom",
      "outputs": [
        {
          "internalType": "bool",
          "name": "",
          "type": "bool"
        }
      ],
      "stateMutability": "nonpayable",
      "type": "function"
    },
    {
      "inputs": [
        {
          "internalType": "uint256",
          "name": "tokenId",
          "type": "uint256"
        }
      ],
      "name": "upLevelBuilding",
      "outputs": [
        {
          "internalType": "uint256",
          "name": "",
          "type": "uint256"
        }
      ],
      "stateMutability": "payable",
      "type": "function"
    },
    {
      "inputs": [],
      "name": "withDraw",
      "outputs": [],
      "stateMutability": "nonpayable",
      "type": "function"
    }
  ],
  "bytecode": "0x6080604052600a60065534801561001557600080fd5b506040518060400160405280600881526020017f4275696c64696e670000000000000000000000000000000000000000000000008152506040518060400160405280600281526020017f4244000000000000000000000000000000000000000000000000000000000000815250816003908161009191906104c3565b5080600490816100a191906104c3565b50505033600760006101000a81548173ffffffffffffffffffffffffffffffffffffffff021916908373ffffffffffffffffffffffffffffffffffffffff1602179055506100f930631dcd65006100fe60201b60201c565b61069f565b600073ffffffffffffffffffffffffffffffffffffffff168273ffffffffffffffffffffffffffffffffffffffff160361016d576040517f08c379a0000000000000000000000000000000000000000000000000000000008152600401610164906105f2565b60405180910390fd5b61017f6000838361026960201b60201c565b80600260008282546101919190610641565b92505081905550806000808473ffffffffffffffffffffffffffffffffffffffff1673ffffffffffffffffffffffffffffffffffffffff16815260200190815260200160002060008282546101e69190610641565b925050819055508173ffffffffffffffffffffffffffffffffffffffff16600073ffffffffffffffffffffffffffffffffffffffff167fddf252ad1be2c89b69c2b068fc378daa952ba7f163c4a11628f55a4df523b3ef8360405161024b9190610684565b60405180910390a36102656000838361026e60201b60201c565b5050565b505050565b505050565b600081519050919050565b7f4e487b7100000000000000000000000000000000000000000000000000000000600052604160045260246000fd5b7f4e487b7100000000000000000000000000000000000000000000000000000000600052602260045260246000fd5b600060028204905060018216806102f457607f821691505b602082108103610307576103066102ad565b5b50919050565b60008190508160005260206000209050919050565b60006020601f8301049050919050565b600082821b905092915050565b60006008830261036f7fffffffffffffffffffffffffffffffffffffffffffffffffffffffffffffffff82610332565b6103798683610332565b95508019841693508086168417925050509392505050565b6000819050919050565b6000819050919050565b60006103c06103bb6103b684610391565b61039b565b610391565b9050919050565b6000819050919050565b6103da836103a5565b6103ee6103e6826103c7565b84845461033f565b825550505050565b600090565b6104036103f6565b61040e8184846103d1565b505050565b5b81811015610432576104276000826103fb565b600181019050610414565b5050565b601f821115610477576104488161030d565b61045184610322565b81016020851015610460578190505b61047461046c85610322565b830182610413565b50505b505050565b600082821c905092915050565b600061049a6000198460080261047c565b1980831691505092915050565b60006104b38383610489565b9150826002028217905092915050565b6104cc82610273565b67ffffffffffffffff8111156104e5576104e461027e565b5b6104ef82546102dc565b6104fa828285610436565b600060209050601f83116001811461052d576000841561051b578287015190505b61052585826104a7565b86555061058d565b601f19841661053b8661030d565b60005b828110156105635784890151825560018201915060208501945060208101905061053e565b86831015610580578489015161057c601f891682610489565b8355505b6001600288020188555050505b505050505050565b600082825260208201905092915050565b7f45524332303a206d696e7420746f20746865207a65726f206164647265737300600082015250565b60006105dc601f83610595565b91506105e7826105a6565b602082019050919050565b6000602082019050818103600083015261060b816105cf565b9050919050565b7f4e487b7100000000000000000000000000000000000000000000000000000000600052601160045260246000fd5b600061064c82610391565b915061065783610391565b925082820190508082111561066f5761066e610612565b5b92915050565b61067e81610391565b82525050565b60006020820190506106996000830184610675565b92915050565b612f27806106ae6000396000f3fe60806040526004361061012a5760003560e01c80636352211e116100ab578063a9059cbb1161006f578063a9059cbb14610421578063b2cbe1631461045e578063bbdffba81461048e578063dd62ed3e146104b7578063ed8cf464146104f4578063fd10607a1461051f5761012a565b80636352211e1461030257806370a082311461033f57806395d89b411461037c5780639dfd8b02146103a7578063a457c2d7146103e45761012a565b806323b872dd116100f257806323b872dd14610204578063313ce56714610241578063395093511461026c5780634e2772e7146102a9578063514166d0146102d95761012a565b806306fdde031461012f578063095ea7b31461015a5780630fdb1c101461019757806314bd5013146101ae57806318160ddd146101d9575b600080fd5b34801561013b57600080fd5b50610144610548565b6040516101519190611ef2565b60405180910390f35b34801561016657600080fd5b50610181600480360381019061017c9190611fbc565b6105da565b60405161018e9190612017565b60405180910390f35b3480156101a357600080fd5b506101ac6105fd565b005b3480156101ba57600080fd5b506101c3610668565b6040516101d091906120f0565b60405180910390f35b3480156101e557600080fd5b506101ee6106c0565b6040516101fb9190612121565b60405180910390f35b34801561021057600080fd5b5061022b6004803603810190610226919061213c565b6106ca565b6040516102389190612017565b60405180910390f35b34801561024d57600080fd5b506102566106f9565b60405161026391906121ab565b60405180910390f35b34801561027857600080fd5b50610293600480360381019061028e9190611fbc565b610702565b6040516102a09190612017565b60405180910390f35b6102c360048036038101906102be91906121c6565b610739565b6040516102d09190612121565b60405180910390f35b3480156102e557600080fd5b5061030060048036038101906102fb91906121f3565b6107d9565b005b34801561030e57600080fd5b50610329600480360381019061032491906121c6565b6108c4565b6040516103369190612242565b60405180910390f35b34801561034b57600080fd5b506103666004803603810190610361919061225d565b610904565b6040516103739190612121565b60405180910390f35b34801561038857600080fd5b5061039161094c565b60405161039e9190611ef2565b60405180910390f35b3480156103b357600080fd5b506103ce60048036038101906103c991906121c6565b6109de565b6040516103db919061237b565b60405180910390f35b3480156103f057600080fd5b5061040b60048036038101906104069190611fbc565b610b32565b6040516104189190612017565b60405180910390f35b34801561042d57600080fd5b5061044860048036038101906104439190611fbc565b610ba9565b6040516104559190612017565b60405180910390f35b610478600480360381019061047391906124d2565b610d3e565b6040516104859190612121565b60405180910390f35b34801561049a57600080fd5b506104b560048036038101906104b091906121c6565b610ed4565b005b3480156104c357600080fd5b506104de60048036038101906104d9919061251b565b6112c9565b6040516104eb9190612121565b60405180910390f35b34801561050057600080fd5b50610509611350565b60405161051691906120f0565b60405180910390f35b34801561052b57600080fd5b50610546600480360381019061054191906121c6565b6113e5565b005b6060600380546105579061258a565b80601f01602080910402602001604051908101604052809291908181526020018280546105839061258a565b80156105d05780601f106105a5576101008083540402835291602001916105d0565b820191906000526020600020905b8154815290600101906020018083116105b357829003601f168201915b5050505050905090565b6000806105e56115d5565b90506105f28185856115dd565b600191505092915050565b600760009054906101000a900473ffffffffffffffffffffffffffffffffffffffff1673ffffffffffffffffffffffffffffffffffffffff166108fc479081150290604051600060405180830381858888f19350505050158015610665573d6000803e3d6000fd5b50565b6060600a8054806020026020016040519081016040528092919081815260200182805480156106b657602002820191906000526020600020905b8154815260200190600101908083116106a2575b5050505050905090565b6000600254905090565b6000806106d56115d5565b90506106e28582856117a6565b6106ed858585611832565b60019150509392505050565b60006012905090565b60008061070d6115d5565b905061072e81858561071f85896112c9565b61072991906125ea565b6115dd565b600191505092915050565b60003373ffffffffffffffffffffffffffffffffffffffff1661075b836108c4565b73ffffffffffffffffffffffffffffffffffffffff161461077b57600080fd5b670de0b6b3a7640000341461078f57600080fd5b6008600083815260200190815260200160002060010160008154809291906107b69061261e565b919050555060086000838152602001908152602001600020600101549050919050565b3373ffffffffffffffffffffffffffffffffffffffff166107f9836108c4565b73ffffffffffffffffffffffffffffffffffffffff161461081957600080fd5b600015156008600084815260200190815260200160002060030160149054906101000a900460ff1615151461084d57600080fd5b60016008600084815260200190815260200160002060030160146101000a81548160ff021916908315150217905550806008600084815260200190815260200160002060040181905550600a8290806001815401808255809150506001900390600052602060002001600090919091909150555050565b60006008600083815260200190815260200160002060030160009054906101000a900473ffffffffffffffffffffffffffffffffffffffff169050919050565b60008060008373ffffffffffffffffffffffffffffffffffffffff1673ffffffffffffffffffffffffffffffffffffffff168152602001908152602001600020549050919050565b60606004805461095b9061258a565b80601f01602080910402602001604051908101604052809291908181526020018280546109879061258a565b80156109d45780601f106109a9576101008083540402835291602001916109d4565b820191906000526020600020905b8154815290600101906020018083116109b757829003601f168201915b5050505050905090565b6109e6611e14565b6000600860008481526020019081526020016000206040518060c0016040529081600082018054610a169061258a565b80601f0160208091040260200160405190810160405280929190818152602001828054610a429061258a565b8015610a8f5780601f10610a6457610100808354040283529160200191610a8f565b820191906000526020600020905b815481529060010190602001808311610a7257829003601f168201915b5050505050815260200160018201548152602001600282015481526020016003820160009054906101000a900473ffffffffffffffffffffffffffffffffffffffff1673ffffffffffffffffffffffffffffffffffffffff1673ffffffffffffffffffffffffffffffffffffffff1681526020016003820160149054906101000a900460ff16151515158152602001600482015481525050905080915050919050565b600080610b3d6115d5565b90506000610b4b82866112c9565b905083811015610b90576040517f08c379a0000000000000000000000000000000000000000000000000000000008152600401610b87906126d8565b60405180910390fd5b610b9d82868684036115dd565b60019250505092915050565b600080610bb46115d5565b9050600760009054906101000a900473ffffffffffffffffffffffffffffffffffffffff1673ffffffffffffffffffffffffffffffffffffffff168473ffffffffffffffffffffffffffffffffffffffff1603610c1657610c158184611ab1565b5b600760009054906101000a900473ffffffffffffffffffffffffffffffffffffffff1673ffffffffffffffffffffffffffffffffffffffff168173ffffffffffffffffffffffffffffffffffffffff1603610c7657610c758484611c87565b5b600760009054906101000a900473ffffffffffffffffffffffffffffffffffffffff1673ffffffffffffffffffffffffffffffffffffffff168473ffffffffffffffffffffffffffffffffffffffff1614158015610d225750600760009054906101000a900473ffffffffffffffffffffffffffffffffffffffff1673ffffffffffffffffffffffffffffffffffffffff168173ffffffffffffffffffffffffffffffffffffffff1614155b15610d3357610d32818585611832565b5b600191505092915050565b6000670de0b6b3a76400003414610d5457600080fd5b610d5e6005611de6565b6000610d6a6005611dfc565b90506040518060c00160405280848152602001600181526020014281526020013373ffffffffffffffffffffffffffffffffffffffff1681526020016000151581526020016000815250600860008381526020019081526020016000206000820151816000019081610ddc91906128a4565b50602082015181600101556040820151816002015560608201518160030160006101000a81548173ffffffffffffffffffffffffffffffffffffffff021916908373ffffffffffffffffffffffffffffffffffffffff16021790555060808201518160030160146101000a81548160ff02191690831515021790555060a08201518160040155905050600960003373ffffffffffffffffffffffffffffffffffffffff1673ffffffffffffffffffffffffffffffffffffffff16815260200190815260200160002081908060018154018082558091505060019003906000526020600020016000909190919091505580915050919050565b6000600860008381526020019081526020016000206040518060c0016040529081600082018054610f049061258a565b80601f0160208091040260200160405190810160405280929190818152602001828054610f309061258a565b8015610f7d5780601f10610f5257610100808354040283529160200191610f7d565b820191906000526020600020905b815481529060010190602001808311610f6057829003601f168201915b5050505050815260200160018201548152602001600282015481526020016003820160009054906101000a900473ffffffffffffffffffffffffffffffffffffffff1673ffffffffffffffffffffffffffffffffffffffff1673ffffffffffffffffffffffffffffffffffffffff1681526020016003820160149054906101000a900460ff161515151581526020016004820154815250509050806080015161102557600080fd5b61103781606001518260a00151610ba9565b5060008160600151905060006008600085815260200190815260200160002060030160146101000a81548160ff021916908315150217905550336008600085815260200190815260200160002060030160006101000a81548173ffffffffffffffffffffffffffffffffffffffff021916908373ffffffffffffffffffffffffffffffffffffffff160217905550600960003373ffffffffffffffffffffffffffffffffffffffff1673ffffffffffffffffffffffffffffffffffffffff16815260200190815260200160002083908060018154018082558091505060019003906000526020600020016000909190919091505560005b600960008373ffffffffffffffffffffffffffffffffffffffff1673ffffffffffffffffffffffffffffffffffffffff16815260200190815260200160002080549050811015611252576000600960008473ffffffffffffffffffffffffffffffffffffffff1673ffffffffffffffffffffffffffffffffffffffff16815260200190815260200160002082815481106111cb576111ca612976565b5b9060005260206000200154905084810361124457600960008473ffffffffffffffffffffffffffffffffffffffff1673ffffffffffffffffffffffffffffffffffffffff16815260200190815260200160002082815481106112305761122f612976565b5b906000526020600020016000905550611252565b50808060010191505061112e565b5060005b600a805490508110156112c3576000600a828154811061127957611278612976565b5b906000526020600020015490508481036112b557600a82815481106112a1576112a0612976565b5b9060005260206000200160009055506112c3565b508080600101915050611256565b50505050565b6000600160008473ffffffffffffffffffffffffffffffffffffffff1673ffffffffffffffffffffffffffffffffffffffff16815260200190815260200160002060008373ffffffffffffffffffffffffffffffffffffffff1673ffffffffffffffffffffffffffffffffffffffff16815260200190815260200160002054905092915050565b6060600960003373ffffffffffffffffffffffffffffffffffffffff1673ffffffffffffffffffffffffffffffffffffffff1681526020019081526020016000208054806020026020016040519081016040528092919081815260200182805480156113db57602002820191906000526020600020905b8154815260200190600101908083116113c7575b5050505050905090565b3373ffffffffffffffffffffffffffffffffffffffff16611405826108c4565b73ffffffffffffffffffffffffffffffffffffffff161461142557600080fd5b6000600860008381526020019081526020016000206040518060c00160405290816000820180546114559061258a565b80601f01602080910402602001604051908101604052809291908181526020018280546114819061258a565b80156114ce5780601f106114a3576101008083540402835291602001916114ce565b820191906000526020600020905b8154815290600101906020018083116114b157829003601f168201915b5050505050815260200160018201548152602001600282015481526020016003820160009054906101000a900473ffffffffffffffffffffffffffffffffffffffff1673ffffffffffffffffffffffffffffffffffffffff1673ffffffffffffffffffffffffffffffffffffffff1681526020016003820160149054906101000a900460ff1615151515815260200160048201548152505090506000816040015190506000826020015190506000824261158891906129a5565b90506000600654838361159b91906129d9565b6115a591906129d9565b90504260086000888152602001908152602001600020600201819055506115cd303383611832565b505050505050565b600033905090565b600073ffffffffffffffffffffffffffffffffffffffff168373ffffffffffffffffffffffffffffffffffffffff160361164c576040517f08c379a000000000000000000000000000000000000000000000000000000000815260040161164390612a8d565b60405180910390fd5b600073ffffffffffffffffffffffffffffffffffffffff168273ffffffffffffffffffffffffffffffffffffffff16036116bb576040517f08c379a00000000000000000000000000000000000000000000000000000000081526004016116b290612b1f565b60405180910390fd5b80600160008573ffffffffffffffffffffffffffffffffffffffff1673ffffffffffffffffffffffffffffffffffffffff16815260200190815260200160002060008473ffffffffffffffffffffffffffffffffffffffff1673ffffffffffffffffffffffffffffffffffffffff168152602001908152602001600020819055508173ffffffffffffffffffffffffffffffffffffffff168373ffffffffffffffffffffffffffffffffffffffff167f8c5be1e5ebec7d5bd14f71427d1e84f3dd0314c0f7b2291e5b200ac8c7c3b925836040516117999190612121565b60405180910390a3505050565b60006117b284846112c9565b90507fffffffffffffffffffffffffffffffffffffffffffffffffffffffffffffffff811461182c578181101561181e576040517f08c379a000000000000000000000000000000000000000000000000000000000815260040161181590612b8b565b60405180910390fd5b61182b84848484036115dd565b5b50505050565b600073ffffffffffffffffffffffffffffffffffffffff168373ffffffffffffffffffffffffffffffffffffffff16036118a1576040517f08c379a000000000000000000000000000000000000000000000000000000000815260040161189890612c1d565b60405180910390fd5b600073ffffffffffffffffffffffffffffffffffffffff168273ffffffffffffffffffffffffffffffffffffffff1603611910576040517f08c379a000000000000000000000000000000000000000000000000000000000815260040161190790612caf565b60405180910390fd5b61191b838383611e0a565b60008060008573ffffffffffffffffffffffffffffffffffffffff1673ffffffffffffffffffffffffffffffffffffffff168152602001908152602001600020549050818110156119a1576040517f08c379a000000000000000000000000000000000000000000000000000000000815260040161199890612d41565b60405180910390fd5b8181036000808673ffffffffffffffffffffffffffffffffffffffff1673ffffffffffffffffffffffffffffffffffffffff16815260200190815260200160002081905550816000808573ffffffffffffffffffffffffffffffffffffffff1673ffffffffffffffffffffffffffffffffffffffff1681526020019081526020016000206000828254611a3491906125ea565b925050819055508273ffffffffffffffffffffffffffffffffffffffff168473ffffffffffffffffffffffffffffffffffffffff167fddf252ad1be2c89b69c2b068fc378daa952ba7f163c4a11628f55a4df523b3ef84604051611a989190612121565b60405180910390a3611aab848484611e0f565b50505050565b600073ffffffffffffffffffffffffffffffffffffffff168273ffffffffffffffffffffffffffffffffffffffff1603611b20576040517f08c379a0000000000000000000000000000000000000000000000000000000008152600401611b1790612dd3565b60405180910390fd5b611b2c82600083611e0a565b60008060008473ffffffffffffffffffffffffffffffffffffffff1673ffffffffffffffffffffffffffffffffffffffff16815260200190815260200160002054905081811015611bb2576040517f08c379a0000000000000000000000000000000000000000000000000000000008152600401611ba990612e65565b60405180910390fd5b8181036000808573ffffffffffffffffffffffffffffffffffffffff1673ffffffffffffffffffffffffffffffffffffffff168152602001908152602001600020819055508160026000828254611c0991906129a5565b92505081905550600073ffffffffffffffffffffffffffffffffffffffff168373ffffffffffffffffffffffffffffffffffffffff167fddf252ad1be2c89b69c2b068fc378daa952ba7f163c4a11628f55a4df523b3ef84604051611c6e9190612121565b60405180910390a3611c8283600084611e0f565b505050565b600073ffffffffffffffffffffffffffffffffffffffff168273ffffffffffffffffffffffffffffffffffffffff1603611cf6576040517f08c379a0000000000000000000000000000000000000000000000000000000008152600401611ced90612ed1565b60405180910390fd5b611d0260008383611e0a565b8060026000828254611d1491906125ea565b92505081905550806000808473ffffffffffffffffffffffffffffffffffffffff1673ffffffffffffffffffffffffffffffffffffffff1681526020019081526020016000206000828254611d6991906125ea565b925050819055508173ffffffffffffffffffffffffffffffffffffffff16600073ffffffffffffffffffffffffffffffffffffffff167fddf252ad1be2c89b69c2b068fc378daa952ba7f163c4a11628f55a4df523b3ef83604051611dce9190612121565b60405180910390a3611de260008383611e0f565b5050565b6001816000016000828254019250508190555050565b600081600001549050919050565b505050565b505050565b6040518060c00160405280606081526020016000815260200160008152602001600073ffffffffffffffffffffffffffffffffffffffff168152602001600015158152602001600081525090565b600081519050919050565b600082825260208201905092915050565b60005b83811015611e9c578082015181840152602081019050611e81565b60008484015250505050565b6000601f19601f8301169050919050565b6000611ec482611e62565b611ece8185611e6d565b9350611ede818560208601611e7e565b611ee781611ea8565b840191505092915050565b60006020820190508181036000830152611f0c8184611eb9565b905092915050565b6000604051905090565b600080fd5b600080fd5b600073ffffffffffffffffffffffffffffffffffffffff82169050919050565b6000611f5382611f28565b9050919050565b611f6381611f48565b8114611f6e57600080fd5b50565b600081359050611f8081611f5a565b92915050565b6000819050919050565b611f9981611f86565b8114611fa457600080fd5b50565b600081359050611fb681611f90565b92915050565b60008060408385031215611fd357611fd2611f1e565b5b6000611fe185828601611f71565b9250506020611ff285828601611fa7565b9150509250929050565b60008115159050919050565b61201181611ffc565b82525050565b600060208201905061202c6000830184612008565b92915050565b600081519050919050565b600082825260208201905092915050565b6000819050602082019050919050565b61206781611f86565b82525050565b6000612079838361205e565b60208301905092915050565b6000602082019050919050565b600061209d82612032565b6120a7818561203d565b93506120b28361204e565b8060005b838110156120e35781516120ca888261206d565b97506120d583612085565b9250506001810190506120b6565b5085935050505092915050565b6000602082019050818103600083015261210a8184612092565b905092915050565b61211b81611f86565b82525050565b60006020820190506121366000830184612112565b92915050565b60008060006060848603121561215557612154611f1e565b5b600061216386828701611f71565b935050602061217486828701611f71565b925050604061218586828701611fa7565b9150509250925092565b600060ff82169050919050565b6121a58161218f565b82525050565b60006020820190506121c0600083018461219c565b92915050565b6000602082840312156121dc576121db611f1e565b5b60006121ea84828501611fa7565b91505092915050565b6000806040838503121561220a57612209611f1e565b5b600061221885828601611fa7565b925050602061222985828601611fa7565b9150509250929050565b61223c81611f48565b82525050565b60006020820190506122576000830184612233565b92915050565b60006020828403121561227357612272611f1e565b5b600061228184828501611f71565b91505092915050565b600082825260208201905092915050565b60006122a682611e62565b6122b0818561228a565b93506122c0818560208601611e7e565b6122c981611ea8565b840191505092915050565b6122dd81611f48565b82525050565b6122ec81611ffc565b82525050565b600060c083016000830151848203600086015261230f828261229b565b9150506020830151612324602086018261205e565b506040830151612337604086018261205e565b50606083015161234a60608601826122d4565b50608083015161235d60808601826122e3565b5060a083015161237060a086018261205e565b508091505092915050565b6000602082019050818103600083015261239581846122f2565b905092915050565b600080fd5b600080fd5b7f4e487b7100000000000000000000000000000000000000000000000000000000600052604160045260246000fd5b6123df82611ea8565b810181811067ffffffffffffffff821117156123fe576123fd6123a7565b5b80604052505050565b6000612411611f14565b905061241d82826123d6565b919050565b600067ffffffffffffffff82111561243d5761243c6123a7565b5b61244682611ea8565b9050602081019050919050565b82818337600083830152505050565b600061247561247084612422565b612407565b905082815260208101848484011115612491576124906123a2565b5b61249c848285612453565b509392505050565b600082601f8301126124b9576124b861239d565b5b81356124c9848260208601612462565b91505092915050565b6000602082840312156124e8576124e7611f1e565b5b600082013567ffffffffffffffff81111561250657612505611f23565b5b612512848285016124a4565b91505092915050565b6000806040838503121561253257612531611f1e565b5b600061254085828601611f71565b925050602061255185828601611f71565b9150509250929050565b7f4e487b7100000000000000000000000000000000000000000000000000000000600052602260045260246000fd5b600060028204905060018216806125a257607f821691505b6020821081036125b5576125b461255b565b5b50919050565b7f4e487b7100000000000000000000000000000000000000000000000000000000600052601160045260246000fd5b60006125f582611f86565b915061260083611f86565b9250828201905080821115612618576126176125bb565b5b92915050565b600061262982611f86565b91507fffffffffffffffffffffffffffffffffffffffffffffffffffffffffffffffff820361265b5761265a6125bb565b5b600182019050919050565b7f45524332303a2064656372656173656420616c6c6f77616e63652062656c6f7760008201527f207a65726f000000000000000000000000000000000000000000000000000000602082015250565b60006126c2602583611e6d565b91506126cd82612666565b604082019050919050565b600060208201905081810360008301526126f1816126b5565b9050919050565b60008190508160005260206000209050919050565b60006020601f8301049050919050565b600082821b905092915050565b60006008830261275a7fffffffffffffffffffffffffffffffffffffffffffffffffffffffffffffffff8261271d565b612764868361271d565b95508019841693508086168417925050509392505050565b6000819050919050565b60006127a161279c61279784611f86565b61277c565b611f86565b9050919050565b6000819050919050565b6127bb83612786565b6127cf6127c7826127a8565b84845461272a565b825550505050565b600090565b6127e46127d7565b6127ef8184846127b2565b505050565b5b81811015612813576128086000826127dc565b6001810190506127f5565b5050565b601f82111561285857612829816126f8565b6128328461270d565b81016020851015612841578190505b61285561284d8561270d565b8301826127f4565b50505b505050565b600082821c905092915050565b600061287b6000198460080261285d565b1980831691505092915050565b6000612894838361286a565b9150826002028217905092915050565b6128ad82611e62565b67ffffffffffffffff8111156128c6576128c56123a7565b5b6128d0825461258a565b6128db828285612817565b600060209050601f83116001811461290e57600084156128fc578287015190505b6129068582612888565b86555061296e565b601f19841661291c866126f8565b60005b828110156129445784890151825560018201915060208501945060208101905061291f565b86831015612961578489015161295d601f89168261286a565b8355505b6001600288020188555050505b505050505050565b7f4e487b7100000000000000000000000000000000000000000000000000000000600052603260045260246000fd5b60006129b082611f86565b91506129bb83611f86565b92508282039050818111156129d3576129d26125bb565b5b92915050565b60006129e482611f86565b91506129ef83611f86565b92508282026129fd81611f86565b91508282048414831517612a1457612a136125bb565b5b5092915050565b7f45524332303a20617070726f76652066726f6d20746865207a65726f2061646460008201527f7265737300000000000000000000000000000000000000000000000000000000602082015250565b6000612a77602483611e6d565b9150612a8282612a1b565b604082019050919050565b60006020820190508181036000830152612aa681612a6a565b9050919050565b7f45524332303a20617070726f766520746f20746865207a65726f20616464726560008201527f7373000000000000000000000000000000000000000000000000000000000000602082015250565b6000612b09602283611e6d565b9150612b1482612aad565b604082019050919050565b60006020820190508181036000830152612b3881612afc565b9050919050565b7f45524332303a20696e73756666696369656e7420616c6c6f77616e6365000000600082015250565b6000612b75601d83611e6d565b9150612b8082612b3f565b602082019050919050565b60006020820190508181036000830152612ba481612b68565b9050919050565b7f45524332303a207472616e736665722066726f6d20746865207a65726f20616460008201527f6472657373000000000000000000000000000000000000000000000000000000602082015250565b6000612c07602583611e6d565b9150612c1282612bab565b604082019050919050565b60006020820190508181036000830152612c3681612bfa565b9050919050565b7f45524332303a207472616e7366657220746f20746865207a65726f206164647260008201527f6573730000000000000000000000000000000000000000000000000000000000602082015250565b6000612c99602383611e6d565b9150612ca482612c3d565b604082019050919050565b60006020820190508181036000830152612cc881612c8c565b9050919050565b7f45524332303a207472616e7366657220616d6f756e742065786365656473206260008201527f616c616e63650000000000000000000000000000000000000000000000000000602082015250565b6000612d2b602683611e6d565b9150612d3682612ccf565b604082019050919050565b60006020820190508181036000830152612d5a81612d1e565b9050919050565b7f45524332303a206275726e2066726f6d20746865207a65726f2061646472657360008201527f7300000000000000000000000000000000000000000000000000000000000000602082015250565b6000612dbd602183611e6d565b9150612dc882612d61565b604082019050919050565b60006020820190508181036000830152612dec81612db0565b9050919050565b7f45524332303a206275726e20616d6f756e7420657863656564732062616c616e60008201527f6365000000000000000000000000000000000000000000000000000000000000602082015250565b6000612e4f602283611e6d565b9150612e5a82612df3565b604082019050919050565b60006020820190508181036000830152612e7e81612e42565b9050919050565b7f45524332303a206d696e7420746f20746865207a65726f206164647265737300600082015250565b6000612ebb601f83611e6d565b9150612ec682612e85565b602082019050919050565b60006020820190508181036000830152612eea81612eae565b905091905056fea26469706673582212204133205056df45fcc25377e3aa6fab16d94bd38598593ba3ab780e78ae76ce8a64736f6c634300081c0033",
  "linkReferences": {},
  "deployedLinkReferences": {}
}